{
  "contractName": "PetFactory",
  "abi": [
    {
      "anonymous": false,
      "inputs": [
        {
          "indexed": true,
          "internalType": "address",
          "name": "owner",
          "type": "address"
        },
        {
          "indexed": true,
          "internalType": "address",
          "name": "approved",
          "type": "address"
        },
        {
          "indexed": true,
          "internalType": "uint256",
          "name": "tokenId",
          "type": "uint256"
        }
      ],
      "name": "Approval",
      "type": "event"
    },
    {
      "anonymous": false,
      "inputs": [
        {
          "indexed": true,
          "internalType": "address",
          "name": "owner",
          "type": "address"
        },
        {
          "indexed": true,
          "internalType": "address",
          "name": "operator",
          "type": "address"
        },
        {
          "indexed": false,
          "internalType": "bool",
          "name": "approved",
          "type": "bool"
        }
      ],
      "name": "ApprovalForAll",
      "type": "event"
    },
    {
      "anonymous": false,
      "inputs": [
        {
          "indexed": true,
          "internalType": "address",
          "name": "petOwner",
          "type": "address"
        },
        {
          "indexed": false,
          "internalType": "uint256",
          "name": "petId",
          "type": "uint256"
        },
        {
          "indexed": false,
          "internalType": "string",
          "name": "status",
          "type": "string"
        },
        {
          "indexed": false,
          "internalType": "uint256",
          "name": "nextFeed",
          "type": "uint256"
        }
      ],
      "name": "LogPetCheck",
      "type": "event"
    },
    {
      "anonymous": false,
      "inputs": [
        {
          "indexed": true,
          "internalType": "address",
          "name": "petOwner",
          "type": "address"
        },
        {
          "indexed": false,
          "internalType": "uint256",
          "name": "petId",
          "type": "uint256"
        },
        {
          "indexed": false,
          "internalType": "string",
          "name": "status",
          "type": "string"
        },
        {
          "indexed": false,
          "internalType": "uint256",
          "name": "nextFeed",
          "type": "uint256"
        }
      ],
      "name": "LogPetFeed",
      "type": "event"
    },
    {
      "anonymous": false,
      "inputs": [
        {
          "indexed": true,
          "internalType": "address",
          "name": "petOwner",
          "type": "address"
        },
        {
          "indexed": false,
          "internalType": "uint256",
          "name": "petId",
          "type": "uint256"
        }
      ],
      "name": "LogPetGenerate",
      "type": "event"
    },
    {
      "anonymous": false,
      "inputs": [
        {
          "indexed": true,
          "internalType": "address",
          "name": "petOwner",
          "type": "address"
        },
        {
          "indexed": false,
          "internalType": "uint256",
          "name": "petId",
          "type": "uint256"
        }
      ],
      "name": "LogPetKill",
      "type": "event"
    },
    {
      "anonymous": false,
      "inputs": [
        {
          "indexed": true,
          "internalType": "address",
          "name": "account",
          "type": "address"
        }
      ],
      "name": "MinterAdded",
      "type": "event"
    },
    {
      "anonymous": false,
      "inputs": [
        {
          "indexed": true,
          "internalType": "address",
          "name": "account",
          "type": "address"
        }
      ],
      "name": "MinterRemoved",
      "type": "event"
    },
    {
      "anonymous": false,
      "inputs": [
        {
          "indexed": true,
          "internalType": "address",
          "name": "from",
          "type": "address"
        },
        {
          "indexed": true,
          "internalType": "address",
          "name": "to",
          "type": "address"
        },
        {
          "indexed": true,
          "internalType": "uint256",
          "name": "tokenId",
          "type": "uint256"
        }
      ],
      "name": "Transfer",
      "type": "event"
    },
    {
      "constant": false,
      "inputs": [
        {
          "internalType": "address",
          "name": "account",
          "type": "address"
        }
      ],
      "name": "addMinter",
      "outputs": [],
      "payable": false,
      "stateMutability": "nonpayable",
      "type": "function"
    },
    {
      "constant": false,
      "inputs": [
        {
          "internalType": "address",
          "name": "to",
          "type": "address"
        },
        {
          "internalType": "uint256",
          "name": "tokenId",
          "type": "uint256"
        }
      ],
      "name": "approve",
      "outputs": [],
      "payable": false,
      "stateMutability": "nonpayable",
      "type": "function"
    },
    {
      "constant": true,
      "inputs": [
        {
          "internalType": "address",
          "name": "owner",
          "type": "address"
        }
      ],
      "name": "balanceOf",
      "outputs": [
        {
          "internalType": "uint256",
          "name": "",
          "type": "uint256"
        }
      ],
      "payable": false,
      "stateMutability": "view",
      "type": "function"
    },
    {
      "constant": false,
      "inputs": [
        {
          "internalType": "uint256",
          "name": "tokenId",
          "type": "uint256"
        }
      ],
      "name": "burn",
      "outputs": [],
      "payable": false,
      "stateMutability": "nonpayable",
      "type": "function"
    },
    {
      "constant": true,
      "inputs": [
        {
          "internalType": "uint256",
          "name": "tokenId",
          "type": "uint256"
        }
      ],
      "name": "getApproved",
      "outputs": [
        {
          "internalType": "address",
          "name": "",
          "type": "address"
        }
      ],
      "payable": false,
      "stateMutability": "view",
      "type": "function"
    },
    {
      "constant": true,
      "inputs": [
        {
          "internalType": "address",
          "name": "owner",
          "type": "address"
        },
        {
          "internalType": "address",
          "name": "operator",
          "type": "address"
        }
      ],
      "name": "isApprovedForAll",
      "outputs": [
        {
          "internalType": "bool",
          "name": "",
          "type": "bool"
        }
      ],
      "payable": false,
      "stateMutability": "view",
      "type": "function"
    },
    {
      "constant": true,
      "inputs": [
        {
          "internalType": "address",
          "name": "account",
          "type": "address"
        }
      ],
      "name": "isMinter",
      "outputs": [
        {
          "internalType": "bool",
          "name": "",
          "type": "bool"
        }
      ],
      "payable": false,
      "stateMutability": "view",
      "type": "function"
    },
    {
      "constant": false,
      "inputs": [
        {
          "internalType": "address",
          "name": "to",
          "type": "address"
        },
        {
          "internalType": "uint256",
          "name": "tokenId",
          "type": "uint256"
        }
      ],
      "name": "mint",
      "outputs": [
        {
          "internalType": "bool",
          "name": "",
          "type": "bool"
        }
      ],
      "payable": false,
      "stateMutability": "nonpayable",
      "type": "function"
    },
    {
      "constant": true,
      "inputs": [
        {
          "internalType": "uint256",
          "name": "tokenId",
          "type": "uint256"
        }
      ],
      "name": "ownerOf",
      "outputs": [
        {
          "internalType": "address",
          "name": "",
          "type": "address"
        }
      ],
      "payable": false,
      "stateMutability": "view",
      "type": "function"
    },
    {
      "constant": false,
      "inputs": [],
      "name": "renounceMinter",
      "outputs": [],
      "payable": false,
      "stateMutability": "nonpayable",
      "type": "function"
    },
    {
      "constant": false,
      "inputs": [
        {
          "internalType": "address",
          "name": "to",
          "type": "address"
        },
        {
          "internalType": "uint256",
          "name": "tokenId",
          "type": "uint256"
        },
        {
          "internalType": "bytes",
          "name": "_data",
          "type": "bytes"
        }
      ],
      "name": "safeMint",
      "outputs": [
        {
          "internalType": "bool",
          "name": "",
          "type": "bool"
        }
      ],
      "payable": false,
      "stateMutability": "nonpayable",
      "type": "function"
    },
    {
      "constant": false,
      "inputs": [
        {
          "internalType": "address",
          "name": "to",
          "type": "address"
        },
        {
          "internalType": "uint256",
          "name": "tokenId",
          "type": "uint256"
        }
      ],
      "name": "safeMint",
      "outputs": [
        {
          "internalType": "bool",
          "name": "",
          "type": "bool"
        }
      ],
      "payable": false,
      "stateMutability": "nonpayable",
      "type": "function"
    },
    {
      "constant": false,
      "inputs": [
        {
          "internalType": "address",
          "name": "from",
          "type": "address"
        },
        {
          "internalType": "address",
          "name": "to",
          "type": "address"
        },
        {
          "internalType": "uint256",
          "name": "tokenId",
          "type": "uint256"
        }
      ],
      "name": "safeTransferFrom",
      "outputs": [],
      "payable": false,
      "stateMutability": "nonpayable",
      "type": "function"
    },
    {
      "constant": false,
      "inputs": [
        {
          "internalType": "address",
          "name": "from",
          "type": "address"
        },
        {
          "internalType": "address",
          "name": "to",
          "type": "address"
        },
        {
          "internalType": "uint256",
          "name": "tokenId",
          "type": "uint256"
        },
        {
          "internalType": "bytes",
          "name": "_data",
          "type": "bytes"
        }
      ],
      "name": "safeTransferFrom",
      "outputs": [],
      "payable": false,
      "stateMutability": "nonpayable",
      "type": "function"
    },
    {
      "constant": false,
      "inputs": [
        {
          "internalType": "address",
          "name": "to",
          "type": "address"
        },
        {
          "internalType": "bool",
          "name": "approved",
          "type": "bool"
        }
      ],
      "name": "setApprovalForAll",
      "outputs": [],
      "payable": false,
      "stateMutability": "nonpayable",
      "type": "function"
    },
    {
      "constant": true,
      "inputs": [
        {
          "internalType": "bytes4",
          "name": "interfaceId",
          "type": "bytes4"
        }
      ],
      "name": "supportsInterface",
      "outputs": [
        {
          "internalType": "bool",
          "name": "",
          "type": "bool"
        }
      ],
      "payable": false,
      "stateMutability": "view",
      "type": "function"
    },
    {
      "constant": false,
      "inputs": [
        {
          "internalType": "address",
          "name": "from",
          "type": "address"
        },
        {
          "internalType": "address",
          "name": "to",
          "type": "address"
        },
        {
          "internalType": "uint256",
          "name": "tokenId",
          "type": "uint256"
        }
      ],
      "name": "transferFrom",
      "outputs": [],
      "payable": false,
      "stateMutability": "nonpayable",
      "type": "function"
    },
    {
      "constant": false,
      "inputs": [],
      "name": "generatePet",
      "outputs": [
        {
          "internalType": "uint256",
          "name": "",
          "type": "uint256"
        }
      ],
      "payable": false,
      "stateMutability": "nonpayable",
      "type": "function"
    },
    {
      "constant": false,
      "inputs": [
        {
          "internalType": "uint256",
          "name": "time",
          "type": "uint256"
        }
      ],
      "name": "feedPet",
      "outputs": [],
      "payable": false,
      "stateMutability": "nonpayable",
      "type": "function"
    },
    {
      "constant": false,
      "inputs": [],
      "name": "checkPetInfo",
      "outputs": [
        {
          "internalType": "string",
          "name": "petStatus",
          "type": "string"
        },
        {
          "internalType": "uint256",
          "name": "nextFeed",
          "type": "uint256"
        }
      ],
      "payable": false,
      "stateMutability": "nonpayable",
      "type": "function"
    }
  ],
  "bytecode": "0x60806040526200001c6301ffc9a760e01b6200005a60201b60201c565b620000346380ac58cd60e01b6200005a60201b60201c565b62000054620000486200016360201b60201c565b6200016b60201b60201c565b62000390565b63ffffffff60e01b817bffffffffffffffffffffffffffffffffffffffffffffffffffffffff19161415620000f7576040517f08c379a000000000000000000000000000000000000000000000000000000000815260040180806020018281038252601c8152602001807f4552433136353a20696e76616c696420696e746572666163652069640000000081525060200191505060405180910390fd5b6001600080837bffffffffffffffffffffffffffffffffffffffffffffffffffffffff19167bffffffffffffffffffffffffffffffffffffffffffffffffffffffff1916815260200190815260200160002060006101000a81548160ff02191690831515021790555050565b600033905090565b62000186816005620001cc60201b62002bb31790919060201c565b8073ffffffffffffffffffffffffffffffffffffffff167f6ae172837ea30b801fbfcdd4108aa1d5bf8ff775444fd70256b44e6bf3dfc3f660405160405180910390a250565b620001de8282620002b060201b60201c565b1562000252576040517f08c379a000000000000000000000000000000000000000000000000000000000815260040180806020018281038252601f8152602001807f526f6c65733a206163636f756e7420616c72656164792068617320726f6c650081525060200191505060405180910390fd5b60018260000160008373ffffffffffffffffffffffffffffffffffffffff1673ffffffffffffffffffffffffffffffffffffffff16815260200190815260200160002060006101000a81548160ff0219169083151502179055505050565b60008073ffffffffffffffffffffffffffffffffffffffff168273ffffffffffffffffffffffffffffffffffffffff16141562000339576040517f08c379a000000000000000000000000000000000000000000000000000000000815260040180806020018281038252602281526020018062005dca6022913960400191505060405180910390fd5b8260000160008373ffffffffffffffffffffffffffffffffffffffff1673ffffffffffffffffffffffffffffffffffffffff16815260200190815260200160002060009054906101000a900460ff16905092915050565b615a2a80620003a06000396000f3fe60806040523480156200001157600080fd5b5060043610620001485760003560e01c80638832e6e311620000bd578063aa271e1a116200007b578063aa271e1a1462000760578063ac15910214620007bf578063b88d4fde14620007df578063e985e9c514620008ea578063fbfabac414620009695762000148565b80638832e6e3146200054e578063983b2d561462000651578063986502751462000698578063a144819414620006a4578063a22cb465146200070d5762000148565b806342842e0e116200010b57806342842e0e146200035157806342966c6814620003c25780635081fd1414620003f35780636352211e146200048257806370a0823114620004f35762000148565b806301ffc9a7146200014d578063081812fc14620001b5578063095ea7b3146200022657806323b872dd146200027757806340c10f1914620002e8575b600080fd5b6200019b600480360360208110156200016557600080fd5b8101908080357bffffffffffffffffffffffffffffffffffffffffffffffffffffffff191690602001909291905050506200099a565b604051808215151515815260200191505060405180910390f35b620001e460048036036020811015620001cd57600080fd5b810190808035906020019092919050505062000a01565b604051808273ffffffffffffffffffffffffffffffffffffffff1673ffffffffffffffffffffffffffffffffffffffff16815260200191505060405180910390f35b62000275600480360360408110156200023e57600080fd5b81019080803573ffffffffffffffffffffffffffffffffffffffff1690602001909291908035906020019092919050505062000aa0565b005b620002e6600480360360608110156200028f57600080fd5b81019080803573ffffffffffffffffffffffffffffffffffffffff169060200190929190803573ffffffffffffffffffffffffffffffffffffffff1690602001909291908035906020019092919050505062000c94565b005b62000337600480360360408110156200030057600080fd5b81019080803573ffffffffffffffffffffffffffffffffffffffff1690602001909291908035906020019092919050505062000d12565b604051808215151515815260200191505060405180910390f35b620003c0600480360360608110156200036957600080fd5b81019080803573ffffffffffffffffffffffffffffffffffffffff169060200190929190803573ffffffffffffffffffffffffffffffffffffffff1690602001909291908035906020019092919050505062000d95565b005b620003f160048036036020811015620003da57600080fd5b810190808035906020019092919050505062000db7565b005b620003fd62000e31565b6040518080602001838152602001828103825284818151815260200191508051906020019080838360005b838110156200044557808201518184015260208101905062000428565b50505050905090810190601f168015620004735780820380516001836020036101000a031916815260200191505b50935050505060405180910390f35b620004b1600480360360208110156200049a57600080fd5b810190808035906020019092919050505062001109565b604051808273ffffffffffffffffffffffffffffffffffffffff1673ffffffffffffffffffffffffffffffffffffffff16815260200191505060405180910390f35b62000538600480360360208110156200050b57600080fd5b81019080803573ffffffffffffffffffffffffffffffffffffffff169060200190929190505050620011d3565b6040518082815260200191505060405180910390f35b62000637600480360360608110156200056657600080fd5b81019080803573ffffffffffffffffffffffffffffffffffffffff1690602001909291908035906020019092919080359060200190640100000000811115620005ae57600080fd5b820183602082011115620005c157600080fd5b80359060200191846001830284011164010000000083111715620005e457600080fd5b91908080601f016020809104026020016040519081016040528093929190818152602001838380828437600081840152601f19601f820116905080830192505050505050509192919290505050620012ac565b604051808215151515815260200191505060405180910390f35b62000696600480360360208110156200066957600080fd5b81019080803573ffffffffffffffffffffffffffffffffffffffff16906020019092919050505062001331565b005b620006a2620013aa565b005b620006f360048036036040811015620006bc57600080fd5b81019080803573ffffffffffffffffffffffffffffffffffffffff16906020019092919080359060200190929190505050620013c0565b604051808215151515815260200191505060405180910390f35b6200075e600480360360408110156200072557600080fd5b81019080803573ffffffffffffffffffffffffffffffffffffffff16906020019092919080351515906020019092919050505062001443565b005b620007a5600480360360208110156200077857600080fd5b81019080803573ffffffffffffffffffffffffffffffffffffffff16906020019092919050505062001602565b604051808215151515815260200191505060405180910390f35b620007c962001621565b6040518082815260200191505060405180910390f35b620008e860048036036080811015620007f757600080fd5b81019080803573ffffffffffffffffffffffffffffffffffffffff169060200190929190803573ffffffffffffffffffffffffffffffffffffffff16906020019092919080359060200190929190803590602001906401000000008111156200085f57600080fd5b8201836020820111156200087257600080fd5b803590602001918460018302840111640100000000831117156200089557600080fd5b91908080601f016020809104026020016040519081016040528093929190818152602001838380828437600081840152601f19601f82011690508083019250505050505050919291929050505062001757565b005b6200094f600480360360408110156200090257600080fd5b81019080803573ffffffffffffffffffffffffffffffffffffffff169060200190929190803573ffffffffffffffffffffffffffffffffffffffff169060200190929190505050620017d7565b604051808215151515815260200191505060405180910390f35b62000998600480360360208110156200098157600080fd5b81019080803590602001909291905050506200186b565b005b6000806000837bffffffffffffffffffffffffffffffffffffffffffffffffffffffff19167bffffffffffffffffffffffffffffffffffffffffffffffffffffffff1916815260200190815260200160002060009054906101000a900460ff169050919050565b600062000a0e8262001c4e565b62000a65576040517f08c379a000000000000000000000000000000000000000000000000000000000815260040180806020018281038252602c815260200180620058d8602c913960400191505060405180910390fd5b6002600083815260200190815260200160002060009054906101000a900473ffffffffffffffffffffffffffffffffffffffff169050919050565b600062000aad8262001109565b90508073ffffffffffffffffffffffffffffffffffffffff168373ffffffffffffffffffffffffffffffffffffffff16141562000b36576040517f08c379a00000000000000000000000000000000000000000000000000000000081526004018080602001828103825260218152602001806200594f6021913960400191505060405180910390fd5b8073ffffffffffffffffffffffffffffffffffffffff1662000b5762001cc0565b73ffffffffffffffffffffffffffffffffffffffff16148062000b8b575062000b8a8162000b8462001cc0565b620017d7565b5b62000be2576040517f08c379a0000000000000000000000000000000000000000000000000000000008152600401808060200182810382526038815260200180620057fc6038913960400191505060405180910390fd5b826002600084815260200190815260200160002060006101000a81548173ffffffffffffffffffffffffffffffffffffffff021916908373ffffffffffffffffffffffffffffffffffffffff160217905550818373ffffffffffffffffffffffffffffffffffffffff168273ffffffffffffffffffffffffffffffffffffffff167f8c5be1e5ebec7d5bd14f71427d1e84f3dd0314c0f7b2291e5b200ac8c7c3b92560405160405180910390a4505050565b62000ca962000ca262001cc0565b8262001cc8565b62000d00576040517f08c379a0000000000000000000000000000000000000000000000000000000008152600401808060200182810382526031815260200180620059706031913960400191505060405180910390fd5b62000d0d83838362001dc8565b505050565b600062000d2862000d2262001cc0565b62001602565b62000d7f576040517f08c379a0000000000000000000000000000000000000000000000000000000008152600401808060200182810382526030815260200180620058876030913960400191505060405180910390fd5b62000d8b83836200202f565b6001905092915050565b62000db28383836040518060200160405280600081525062001757565b505050565b62000dcc62000dc562001cc0565b8262001cc8565b62000e23576040517f08c379a0000000000000000000000000000000000000000000000000000000008152600401808060200182810382526030815260200180620059c66030913960400191505060405180910390fd5b62000e2e816200224d565b50565b6060600042600660003373ffffffffffffffffffffffffffffffffffffffff1673ffffffffffffffffffffffffffffffffffffffff16815260200190815260200160002060020154101562000e8b5762000e8a62002266565b5b6000600181111562000e9957fe5b600660003373ffffffffffffffffffffffffffffffffffffffff1673ffffffffffffffffffffffffffffffffffffffff16815260200190815260200160002060010160009054906101000a900460ff16600181111562000ef557fe5b141562000f3a576040518060400160405280600581526020017f416c697665000000000000000000000000000000000000000000000000000000815250915062000f73565b6040518060400160405280600481526020017f446561640000000000000000000000000000000000000000000000000000000081525091505b3373ffffffffffffffffffffffffffffffffffffffff167f2c4a6eff40f9d8bf60e810b3fe9d04d04129f1709a81258e39ad37853506ddba600660003373ffffffffffffffffffffffffffffffffffffffff1673ffffffffffffffffffffffffffffffffffffffff1681526020019081526020016000206000015484600660003373ffffffffffffffffffffffffffffffffffffffff1673ffffffffffffffffffffffffffffffffffffffff168152602001908152602001600020600201546040518084815260200180602001838152602001828103825284818151815260200191508051906020019080838360005b838110156200108057808201518184015260208101905062001063565b50505050905090810190601f168015620010ae5780820380516001836020036101000a031916815260200191505b5094505050505060405180910390a281600660003373ffffffffffffffffffffffffffffffffffffffff1673ffffffffffffffffffffffffffffffffffffffff16815260200190815260200160002060020154915091509091565b6000806001600084815260200190815260200160002060009054906101000a900473ffffffffffffffffffffffffffffffffffffffff169050600073ffffffffffffffffffffffffffffffffffffffff168173ffffffffffffffffffffffffffffffffffffffff161415620011ca576040517f08c379a00000000000000000000000000000000000000000000000000000000081526004018080602001828103825260298152602001806200585e6029913960400191505060405180910390fd5b80915050919050565b60008073ffffffffffffffffffffffffffffffffffffffff168273ffffffffffffffffffffffffffffffffffffffff1614156200125c576040517f08c379a000000000000000000000000000000000000000000000000000000000815260040180806020018281038252602a81526020018062005834602a913960400191505060405180910390fd5b620012a5600360008473ffffffffffffffffffffffffffffffffffffffff1673ffffffffffffffffffffffffffffffffffffffff16815260200190815260200160002062002320565b9050919050565b6000620012c2620012bc62001cc0565b62001602565b62001319576040517f08c379a0000000000000000000000000000000000000000000000000000000008152600401808060200182810382526030815260200180620058876030913960400191505060405180910390fd5b620013268484846200232e565b600190509392505050565b620013456200133f62001cc0565b62001602565b6200139c576040517f08c379a0000000000000000000000000000000000000000000000000000000008152600401808060200182810382526030815260200180620058876030913960400191505060405180910390fd5b620013a781620023a5565b50565b620013be620013b862001cc0565b62002401565b565b6000620013d6620013d062001cc0565b62001602565b6200142d576040517f08c379a0000000000000000000000000000000000000000000000000000000008152600401808060200182810382526030815260200180620058876030913960400191505060405180910390fd5b6200143983836200245d565b6001905092915050565b6200144d62001cc0565b73ffffffffffffffffffffffffffffffffffffffff168273ffffffffffffffffffffffffffffffffffffffff161415620014ef576040517f08c379a00000000000000000000000000000000000000000000000000000000081526004018080602001828103825260198152602001807f4552433732313a20617070726f766520746f2063616c6c65720000000000000081525060200191505060405180910390fd5b8060046000620014fe62001cc0565b73ffffffffffffffffffffffffffffffffffffffff1673ffffffffffffffffffffffffffffffffffffffff16815260200190815260200160002060008473ffffffffffffffffffffffffffffffffffffffff1673ffffffffffffffffffffffffffffffffffffffff16815260200190815260200160002060006101000a81548160ff0219169083151502179055508173ffffffffffffffffffffffffffffffffffffffff16620015ad62001cc0565b73ffffffffffffffffffffffffffffffffffffffff167f17307eab39ab6107e8899845ad3d59bd9653f200f220920489ca2b5937696c3183604051808215151515815260200191505060405180910390a35050565b60006200161a8260056200247d90919063ffffffff16565b9050919050565b600080600754905060016007600082825401925050819055506200164462002eae565b818160000181815250506000816020019060018111156200166157fe5b908160018111156200166f57fe5b815250504281604001818152505080600660003373ffffffffffffffffffffffffffffffffffffffff1673ffffffffffffffffffffffffffffffffffffffff1681526020019081526020016000206000820151816000015560208201518160010160006101000a81548160ff02191690836001811115620016ec57fe5b021790555060408201518160020155905050818160400151604051620017129062002edb565b8083815260200182815260200192505050604051809103906000f08015801562001740573d6000803e3d6000fd5b50506200174e3383620013c0565b50819250505090565b6200176c6200176562001cc0565b8362001cc8565b620017c3576040517f08c379a0000000000000000000000000000000000000000000000000000000008152600401808060200182810382526031815260200180620059706031913960400191505060405180910390fd5b620017d1848484846200255d565b50505050565b6000600460008473ffffffffffffffffffffffffffffffffffffffff1673ffffffffffffffffffffffffffffffffffffffff16815260200190815260200160002060008373ffffffffffffffffffffffffffffffffffffffff1673ffffffffffffffffffffffffffffffffffffffff16815260200190815260200160002060009054906101000a900460ff16905092915050565b600180141562001a0b576200187f62002eae565b600660003373ffffffffffffffffffffffffffffffffffffffff1673ffffffffffffffffffffffffffffffffffffffff168152602001908152602001600020604051806060016040529081600082015481526020016001820160009054906101000a900460ff166001811115620018f257fe5b6001811115620018fe57fe5b8152602001600282015481525050905062093a808201816040018181525050600660003373ffffffffffffffffffffffffffffffffffffffff1673ffffffffffffffffffffffffffffffffffffffff1681526020019081526020016000206000808201600090556001820160006101000a81549060ff02191690556002820160009055505080600660003373ffffffffffffffffffffffffffffffffffffffff1673ffffffffffffffffffffffffffffffffffffffff1681526020019081526020016000206000820151816000015560208201518160010160006101000a81548160ff02191690836001811115620019f257fe5b0217905550604082015181600201559050505062001a16565b62001a1562002266565b5b60606000600181111562001a2657fe5b600660003373ffffffffffffffffffffffffffffffffffffffff1673ffffffffffffffffffffffffffffffffffffffff16815260200190815260200160002060010160009054906101000a900460ff16600181111562001a8257fe5b141562001ac7576040518060400160405280600581526020017f416c697665000000000000000000000000000000000000000000000000000000815250905062001b00565b6040518060400160405280600481526020017f446561640000000000000000000000000000000000000000000000000000000081525090505b3373ffffffffffffffffffffffffffffffffffffffff167f74e7ea84d3b7bbe97190375606731dea28e96c3e17407efe45f2604c46e6b35a600660003373ffffffffffffffffffffffffffffffffffffffff1673ffffffffffffffffffffffffffffffffffffffff1681526020019081526020016000206000015483600660003373ffffffffffffffffffffffffffffffffffffffff1673ffffffffffffffffffffffffffffffffffffffff168152602001908152602001600020600201546040518084815260200180602001838152602001828103825284818151815260200191508051906020019080838360005b8381101562001c0d57808201518184015260208101905062001bf0565b50505050905090810190601f16801562001c3b5780820380516001836020036101000a031916815260200191505b5094505050505060405180910390a25050565b6000806001600084815260200190815260200160002060009054906101000a900473ffffffffffffffffffffffffffffffffffffffff169050600073ffffffffffffffffffffffffffffffffffffffff168173ffffffffffffffffffffffffffffffffffffffff161415915050919050565b600033905090565b600062001cd58262001c4e565b62001d2c576040517f08c379a000000000000000000000000000000000000000000000000000000000815260040180806020018281038252602c815260200180620057d0602c913960400191505060405180910390fd5b600062001d398362001109565b90508073ffffffffffffffffffffffffffffffffffffffff168473ffffffffffffffffffffffffffffffffffffffff16148062001dab57508373ffffffffffffffffffffffffffffffffffffffff1662001d938462000a01565b73ffffffffffffffffffffffffffffffffffffffff16145b8062001dbf575062001dbe8185620017d7565b5b91505092915050565b8273ffffffffffffffffffffffffffffffffffffffff1662001dea8262001109565b73ffffffffffffffffffffffffffffffffffffffff161462001e58576040517f08c379a0000000000000000000000000000000000000000000000000000000008152600401808060200182810382526029815260200180620059266029913960400191505060405180910390fd5b600073ffffffffffffffffffffffffffffffffffffffff168273ffffffffffffffffffffffffffffffffffffffff16141562001ee0576040517f08c379a0000000000000000000000000000000000000000000000000000000008152600401808060200182810382526024815260200180620057ac6024913960400191505060405180910390fd5b62001eeb81620025d5565b62001f34600360008573ffffffffffffffffffffffffffffffffffffffff1673ffffffffffffffffffffffffffffffffffffffff16815260200190815260200160002062002694565b62001f7d600360008473ffffffffffffffffffffffffffffffffffffffff1673ffffffffffffffffffffffffffffffffffffffff168152602001908152602001600020620026b9565b816001600083815260200190815260200160002060006101000a81548173ffffffffffffffffffffffffffffffffffffffff021916908373ffffffffffffffffffffffffffffffffffffffff160217905550808273ffffffffffffffffffffffffffffffffffffffff168473ffffffffffffffffffffffffffffffffffffffff167fddf252ad1be2c89b69c2b068fc378daa952ba7f163c4a11628f55a4df523b3ef60405160405180910390a4505050565b600073ffffffffffffffffffffffffffffffffffffffff168273ffffffffffffffffffffffffffffffffffffffff161415620020d3576040517f08c379a00000000000000000000000000000000000000000000000000000000081526004018080602001828103825260208152602001807f4552433732313a206d696e7420746f20746865207a65726f206164647265737381525060200191505060405180910390fd5b620020de8162001c4e565b1562002152576040517f08c379a000000000000000000000000000000000000000000000000000000000815260040180806020018281038252601c8152602001807f4552433732313a20746f6b656e20616c7265616479206d696e7465640000000081525060200191505060405180910390fd5b816001600083815260200190815260200160002060006101000a81548173ffffffffffffffffffffffffffffffffffffffff021916908373ffffffffffffffffffffffffffffffffffffffff160217905550620021ed600360008473ffffffffffffffffffffffffffffffffffffffff1673ffffffffffffffffffffffffffffffffffffffff168152602001908152602001600020620026b9565b808273ffffffffffffffffffffffffffffffffffffffff16600073ffffffffffffffffffffffffffffffffffffffff167fddf252ad1be2c89b69c2b068fc378daa952ba7f163c4a11628f55a4df523b3ef60405160405180910390a45050565b620022636200225c8262001109565b82620026cf565b50565b6000600660003373ffffffffffffffffffffffffffffffffffffffff1673ffffffffffffffffffffffffffffffffffffffff1681526020019081526020016000206000015490506001600660003373ffffffffffffffffffffffffffffffffffffffff1673ffffffffffffffffffffffffffffffffffffffff16815260200190815260200160002060010160006101000a81548160ff021916908360018111156200230d57fe5b02179055506200231d8162000db7565b50565b600081600001549050919050565b6200233a83836200202f565b62002349600084848462002866565b620023a0576040517f08c379a00000000000000000000000000000000000000000000000000000000081526004018080602001828103825260328152602001806200577a6032913960400191505060405180910390fd5b505050565b620023bb81600562002bb390919063ffffffff16565b8073ffffffffffffffffffffffffffffffffffffffff167f6ae172837ea30b801fbfcdd4108aa1d5bf8ff775444fd70256b44e6bf3dfc3f660405160405180910390a250565b6200241781600562002c9190919063ffffffff16565b8073ffffffffffffffffffffffffffffffffffffffff167fe94479a9f7e1952cc78f2d6baab678adc1b772d936c6583def489e524cb6669260405160405180910390a250565b620024798282604051806020016040528060008152506200232e565b5050565b60008073ffffffffffffffffffffffffffffffffffffffff168273ffffffffffffffffffffffffffffffffffffffff16141562002506576040517f08c379a0000000000000000000000000000000000000000000000000000000008152600401808060200182810382526022815260200180620059046022913960400191505060405180910390fd5b8260000160008373ffffffffffffffffffffffffffffffffffffffff1673ffffffffffffffffffffffffffffffffffffffff16815260200190815260200160002060009054906101000a900460ff16905092915050565b6200256a84848462001dc8565b620025788484848462002866565b620025cf576040517f08c379a00000000000000000000000000000000000000000000000000000000081526004018080602001828103825260328152602001806200577a6032913960400191505060405180910390fd5b50505050565b600073ffffffffffffffffffffffffffffffffffffffff166002600083815260200190815260200160002060009054906101000a900473ffffffffffffffffffffffffffffffffffffffff1673ffffffffffffffffffffffffffffffffffffffff1614620026915760006002600083815260200190815260200160002060006101000a81548173ffffffffffffffffffffffffffffffffffffffff021916908373ffffffffffffffffffffffffffffffffffffffff1602179055505b50565b620026ae6001826000015462002d5290919063ffffffff16565b816000018190555050565b6001816000016000828254019250508190555050565b8173ffffffffffffffffffffffffffffffffffffffff16620026f18262001109565b73ffffffffffffffffffffffffffffffffffffffff16146200275f576040517f08c379a0000000000000000000000000000000000000000000000000000000008152600401808060200182810382526025815260200180620059a16025913960400191505060405180910390fd5b6200276a81620025d5565b620027b3600360008473ffffffffffffffffffffffffffffffffffffffff1673ffffffffffffffffffffffffffffffffffffffff16815260200190815260200160002062002694565b60006001600083815260200190815260200160002060006101000a81548173ffffffffffffffffffffffffffffffffffffffff021916908373ffffffffffffffffffffffffffffffffffffffff16021790555080600073ffffffffffffffffffffffffffffffffffffffff168373ffffffffffffffffffffffffffffffffffffffff167fddf252ad1be2c89b69c2b068fc378daa952ba7f163c4a11628f55a4df523b3ef60405160405180910390a45050565b6000620028898473ffffffffffffffffffffffffffffffffffffffff1662002d9e565b62002898576001905062002bab565b600060608573ffffffffffffffffffffffffffffffffffffffff168673ffffffffffffffffffffffffffffffffffffffff1663150b7a02905060e01b620028de62001cc0565b898888604051602401808573ffffffffffffffffffffffffffffffffffffffff1673ffffffffffffffffffffffffffffffffffffffff1681526020018473ffffffffffffffffffffffffffffffffffffffff1673ffffffffffffffffffffffffffffffffffffffff16815260200183815260200180602001828103825283818151815260200191508051906020019080838360005b838110156200299057808201518184015260208101905062002973565b50505050905090810190601f168015620029be5780820380516001836020036101000a031916815260200191505b5095505050505050604051602081830303815290604052907bffffffffffffffffffffffffffffffffffffffffffffffffffffffff19166020820180517bffffffffffffffffffffffffffffffffffffffffffffffffffffffff83818316178352505050506040518082805190602001908083835b6020831062002a58578051825260208201915060208101905060208303925062002a33565b6001836020036101000a0380198251168184511680821785525050505050509050019150506000604051808303816000865af19150503d806000811462002abc576040519150601f19603f3d011682016040523d82523d6000602084013e62002ac1565b606091505b50915091508162002b325760008151111562002ae05780518082602001fd5b6040517f08c379a00000000000000000000000000000000000000000000000000000000081526004018080602001828103825260328152602001806200577a6032913960400191505060405180910390fd5b600081806020019051602081101562002b4a57600080fd5b8101908080519060200190929190505050905063150b7a0260e01b7bffffffffffffffffffffffffffffffffffffffffffffffffffffffff1916817bffffffffffffffffffffffffffffffffffffffffffffffffffffffff19161493505050505b949350505050565b62002bbf82826200247d565b1562002c33576040517f08c379a000000000000000000000000000000000000000000000000000000000815260040180806020018281038252601f8152602001807f526f6c65733a206163636f756e7420616c72656164792068617320726f6c650081525060200191505060405180910390fd5b60018260000160008373ffffffffffffffffffffffffffffffffffffffff1673ffffffffffffffffffffffffffffffffffffffff16815260200190815260200160002060006101000a81548160ff0219169083151502179055505050565b62002c9d82826200247d565b62002cf4576040517f08c379a0000000000000000000000000000000000000000000000000000000008152600401808060200182810382526021815260200180620058b76021913960400191505060405180910390fd5b60008260000160008373ffffffffffffffffffffffffffffffffffffffff1673ffffffffffffffffffffffffffffffffffffffff16815260200190815260200160002060006101000a81548160ff0219169083151502179055505050565b600062002d9683836040518060400160405280601e81526020017f536166654d6174683a207375627472616374696f6e206f766572666c6f77000081525062002dea565b905092915050565b60008060007fc5d2460186f7233c927e7db2dcc703c0e500b653ca82273b7bfad8045d85a47060001b9050833f915080821415801562002de157506000801b8214155b92505050919050565b600083831115829062002e9b576040517f08c379a00000000000000000000000000000000000000000000000000000000081526004018080602001828103825283818151815260200191508051906020019080838360005b8381101562002e5f57808201518184015260208101905062002e42565b50505050905090810190601f16801562002e8d5780820380516001836020036101000a031916815260200191505b509250505060405180910390fd5b5060008385039050809150509392505050565b6040518060600160405280600081526020016000600181111562002ece57fe5b8152602001600081525090565b6128908062002eea8339019056fe60806040523480156200001157600080fd5b506040516200289038038062002890833981810160405260408110156200003757600080fd5b8101908080519060200190929190805190602001909291905050506040518060400160405280600381526020017f50657400000000000000000000000000000000000000000000000000000000008152506040518060400160405280600381526020017f50455400000000000000000000000000000000000000000000000000000000008152508181620000d86301ffc9a760e01b6200019a60201b60201c565b620000f06380ac58cd60e01b6200019a60201b60201c565b6200010863780e9d6360e01b6200019a60201b60201c565b816009908051906020019062000120929190620002a3565b5080600a908051906020019062000139929190620002a3565b5062000152635b5e139f60e01b6200019a60201b60201c565b5050505081600d600001819055506000600d60010160006101000a81548160ff021916908360018111156200018357fe5b021790555080600d60020181905550505062000352565b63ffffffff60e01b817bffffffffffffffffffffffffffffffffffffffffffffffffffffffff1916141562000237576040517f08c379a000000000000000000000000000000000000000000000000000000000815260040180806020018281038252601c8152602001807f4552433136353a20696e76616c696420696e746572666163652069640000000081525060200191505060405180910390fd5b6001600080837bffffffffffffffffffffffffffffffffffffffffffffffffffffffff19167bffffffffffffffffffffffffffffffffffffffffffffffffffffffff1916815260200190815260200160002060006101000a81548160ff02191690831515021790555050565b828054600181600116156101000203166002900490600052602060002090601f016020900481019282601f10620002e657805160ff191683800117855562000317565b8280016001018555821562000317579182015b8281111562000316578251825591602001919060010190620002f9565b5b5090506200032691906200032a565b5090565b6200034f91905b808211156200034b57600081600090555060010162000331565b5090565b90565b61252e80620003626000396000f3fe608060405234801561001057600080fd5b50600436106101165760003560e01c80635f0e8dd0116100a257806395d89b411161007157806395d89b41146105e0578063a22cb46514610663578063b88d4fde146106b3578063c87b56dd146107b8578063e985e9c51461085f57610116565b80635f0e8dd01461045d5780636352211e146104975780636c0360eb1461050557806370a082311461058857610116565b806318160ddd116100e957806318160ddd146102bf57806323b872dd146102dd5780632f745c591461034b57806342842e0e146103ad5780634f6ccce71461041b57610116565b806301ffc9a71461011b57806306fdde0314610180578063081812fc14610203578063095ea7b314610271575b600080fd5b6101666004803603602081101561013157600080fd5b8101908080357bffffffffffffffffffffffffffffffffffffffffffffffffffffffff191690602001909291905050506108db565b604051808215151515815260200191505060405180910390f35b610188610942565b6040518080602001828103825283818151815260200191508051906020019080838360005b838110156101c85780820151818401526020810190506101ad565b50505050905090810190601f1680156101f55780820380516001836020036101000a031916815260200191505b509250505060405180910390f35b61022f6004803603602081101561021957600080fd5b81019080803590602001909291905050506109e4565b604051808273ffffffffffffffffffffffffffffffffffffffff1673ffffffffffffffffffffffffffffffffffffffff16815260200191505060405180910390f35b6102bd6004803603604081101561028757600080fd5b81019080803573ffffffffffffffffffffffffffffffffffffffff16906020019092919080359060200190929190505050610a7f565b005b6102c7610c66565b6040518082815260200191505060405180910390f35b610349600480360360608110156102f357600080fd5b81019080803573ffffffffffffffffffffffffffffffffffffffff169060200190929190803573ffffffffffffffffffffffffffffffffffffffff16906020019092919080359060200190929190505050610c73565b005b6103976004803603604081101561036157600080fd5b81019080803573ffffffffffffffffffffffffffffffffffffffff16906020019092919080359060200190929190505050610ce9565b6040518082815260200191505060405180910390f35b610419600480360360608110156103c357600080fd5b81019080803573ffffffffffffffffffffffffffffffffffffffff169060200190929190803573ffffffffffffffffffffffffffffffffffffffff16906020019092919080359060200190929190505050610da8565b005b6104476004803603602081101561043157600080fd5b8101908080359060200190929190505050610dc8565b6040518082815260200191505060405180910390f35b610465610e48565b6040518084815260200183600181111561047b57fe5b60ff168152602001828152602001935050505060405180910390f35b6104c3600480360360208110156104ad57600080fd5b8101908080359060200190929190505050610e6d565b604051808273ffffffffffffffffffffffffffffffffffffffff1673ffffffffffffffffffffffffffffffffffffffff16815260200191505060405180910390f35b61050d610f35565b6040518080602001828103825283818151815260200191508051906020019080838360005b8381101561054d578082015181840152602081019050610532565b50505050905090810190601f16801561057a5780820380516001836020036101000a031916815260200191505b509250505060405180910390f35b6105ca6004803603602081101561059e57600080fd5b81019080803573ffffffffffffffffffffffffffffffffffffffff169060200190929190505050610fd7565b6040518082815260200191505060405180910390f35b6105e86110ac565b6040518080602001828103825283818151815260200191508051906020019080838360005b8381101561062857808201518184015260208101905061060d565b50505050905090810190601f1680156106555780820380516001836020036101000a031916815260200191505b509250505060405180910390f35b6106b16004803603604081101561067957600080fd5b81019080803573ffffffffffffffffffffffffffffffffffffffff16906020019092919080351515906020019092919050505061114e565b005b6107b6600480360360808110156106c957600080fd5b81019080803573ffffffffffffffffffffffffffffffffffffffff169060200190929190803573ffffffffffffffffffffffffffffffffffffffff169060200190929190803590602001909291908035906020019064010000000081111561073057600080fd5b82018360208201111561074257600080fd5b8035906020019184600183028401116401000000008311171561076457600080fd5b91908080601f016020809104026020016040519081016040528093929190818152602001838380828437600081840152601f19601f820116905080830192505050505050509192919290505050611306565b005b6107e4600480360360208110156107ce57600080fd5b810190808035906020019092919050505061137e565b6040518080602001828103825283818151815260200191508051906020019080838360005b83811015610824578082015181840152602081019050610809565b50505050905090810190601f1680156108515780820380516001836020036101000a031916815260200191505b509250505060405180910390f35b6108c16004803603604081101561087557600080fd5b81019080803573ffffffffffffffffffffffffffffffffffffffff169060200190929190803573ffffffffffffffffffffffffffffffffffffffff169060200190929190505050611580565b604051808215151515815260200191505060405180910390f35b6000806000837bffffffffffffffffffffffffffffffffffffffffffffffffffffffff19167bffffffffffffffffffffffffffffffffffffffffffffffffffffffff1916815260200190815260200160002060009054906101000a900460ff169050919050565b606060098054600181600116156101000203166002900480601f0160208091040260200160405190810160405280929190818152602001828054600181600116156101000203166002900480156109da5780601f106109af576101008083540402835291602001916109da565b820191906000526020600020905b8154815290600101906020018083116109bd57829003601f168201915b5050505050905090565b60006109ef82611614565b610a44576040517f08c379a000000000000000000000000000000000000000000000000000000000815260040180806020018281038252602c8152602001806123f8602c913960400191505060405180910390fd5b6002600083815260200190815260200160002060009054906101000a900473ffffffffffffffffffffffffffffffffffffffff169050919050565b6000610a8a82610e6d565b90508073ffffffffffffffffffffffffffffffffffffffff168373ffffffffffffffffffffffffffffffffffffffff161415610b11576040517f08c379a000000000000000000000000000000000000000000000000000000000815260040180806020018281038252602181526020018061247c6021913960400191505060405180910390fd5b8073ffffffffffffffffffffffffffffffffffffffff16610b30611686565b73ffffffffffffffffffffffffffffffffffffffff161480610b5f5750610b5e81610b59611686565b611580565b5b610bb4576040517f08c379a000000000000000000000000000000000000000000000000000000000815260040180806020018281038252603881526020018061236d6038913960400191505060405180910390fd5b826002600084815260200190815260200160002060006101000a81548173ffffffffffffffffffffffffffffffffffffffff021916908373ffffffffffffffffffffffffffffffffffffffff160217905550818373ffffffffffffffffffffffffffffffffffffffff168273ffffffffffffffffffffffffffffffffffffffff167f8c5be1e5ebec7d5bd14f71427d1e84f3dd0314c0f7b2291e5b200ac8c7c3b92560405160405180910390a4505050565b6000600780549050905090565b610c84610c7e611686565b8261168e565b610cd9576040517f08c379a000000000000000000000000000000000000000000000000000000000815260040180806020018281038252603181526020018061249d6031913960400191505060405180910390fd5b610ce4838383611782565b505050565b6000610cf483610fd7565b8210610d4b576040517f08c379a000000000000000000000000000000000000000000000000000000000815260040180806020018281038252602b8152602001806122c0602b913960400191505060405180910390fd5b600560008473ffffffffffffffffffffffffffffffffffffffff1673ffffffffffffffffffffffffffffffffffffffff1681526020019081526020016000208281548110610d9557fe5b9060005260206000200154905092915050565b610dc383838360405180602001604052806000815250611306565b505050565b6000610dd2610c66565b8210610e29576040517f08c379a000000000000000000000000000000000000000000000000000000000815260040180806020018281038252602c8152602001806124ce602c913960400191505060405180910390fd5b60078281548110610e3657fe5b90600052602060002001549050919050565b600d8060000154908060010160009054906101000a900460ff16908060020154905083565b6000806001600084815260200190815260200160002060009054906101000a900473ffffffffffffffffffffffffffffffffffffffff169050600073ffffffffffffffffffffffffffffffffffffffff168173ffffffffffffffffffffffffffffffffffffffff161415610f2c576040517f08c379a00000000000000000000000000000000000000000000000000000000081526004018080602001828103825260298152602001806123cf6029913960400191505060405180910390fd5b80915050919050565b6060600b8054600181600116156101000203166002900480601f016020809104026020016040519081016040528092919081815260200182805460018160011615610100020316600290048015610fcd5780601f10610fa257610100808354040283529160200191610fcd565b820191906000526020600020905b815481529060010190602001808311610fb057829003601f168201915b5050505050905090565b60008073ffffffffffffffffffffffffffffffffffffffff168273ffffffffffffffffffffffffffffffffffffffff16141561105e576040517f08c379a000000000000000000000000000000000000000000000000000000000815260040180806020018281038252602a8152602001806123a5602a913960400191505060405180910390fd5b6110a5600360008473ffffffffffffffffffffffffffffffffffffffff1673ffffffffffffffffffffffffffffffffffffffff1681526020019081526020016000206117a6565b9050919050565b6060600a8054600181600116156101000203166002900480601f0160208091040260200160405190810160405280929190818152602001828054600181600116156101000203166002900480156111445780601f1061111957610100808354040283529160200191611144565b820191906000526020600020905b81548152906001019060200180831161112757829003601f168201915b5050505050905090565b611156611686565b73ffffffffffffffffffffffffffffffffffffffff168273ffffffffffffffffffffffffffffffffffffffff1614156111f7576040517f08c379a00000000000000000000000000000000000000000000000000000000081526004018080602001828103825260198152602001807f4552433732313a20617070726f766520746f2063616c6c65720000000000000081525060200191505060405180910390fd5b8060046000611204611686565b73ffffffffffffffffffffffffffffffffffffffff1673ffffffffffffffffffffffffffffffffffffffff16815260200190815260200160002060008473ffffffffffffffffffffffffffffffffffffffff1673ffffffffffffffffffffffffffffffffffffffff16815260200190815260200160002060006101000a81548160ff0219169083151502179055508173ffffffffffffffffffffffffffffffffffffffff166112b1611686565b73ffffffffffffffffffffffffffffffffffffffff167f17307eab39ab6107e8899845ad3d59bd9653f200f220920489ca2b5937696c3183604051808215151515815260200191505060405180910390a35050565b611317611311611686565b8361168e565b61136c576040517f08c379a000000000000000000000000000000000000000000000000000000000815260040180806020018281038252603181526020018061249d6031913960400191505060405180910390fd5b611378848484846117b4565b50505050565b606061138982611614565b6113de576040517f08c379a000000000000000000000000000000000000000000000000000000000815260040180806020018281038252602f81526020018061244d602f913960400191505060405180910390fd5b6060600c60008481526020019081526020016000208054600181600116156101000203166002900480601f0160208091040260200160405190810160405280929190818152602001828054600181600116156101000203166002900480156114875780601f1061145c57610100808354040283529160200191611487565b820191906000526020600020905b81548152906001019060200180831161146a57829003601f168201915b505050505090506000815114156114b0576040518060200160405280600081525091505061157b565b600b8160405160200180838054600181600116156101000203166002900480156115115780601f106114ef576101008083540402835291820191611511565b820191906000526020600020905b8154815290600101906020018083116114fd575b505082805190602001908083835b60208310611542578051825260208201915060208101905060208303925061151f565b6001836020036101000a038019825116818451168082178552505050505050905001925050506040516020818303038152906040529150505b919050565b6000600460008473ffffffffffffffffffffffffffffffffffffffff1673ffffffffffffffffffffffffffffffffffffffff16815260200190815260200160002060008373ffffffffffffffffffffffffffffffffffffffff1673ffffffffffffffffffffffffffffffffffffffff16815260200190815260200160002060009054906101000a900460ff16905092915050565b6000806001600084815260200190815260200160002060009054906101000a900473ffffffffffffffffffffffffffffffffffffffff169050600073ffffffffffffffffffffffffffffffffffffffff168173ffffffffffffffffffffffffffffffffffffffff161415915050919050565b600033905090565b600061169982611614565b6116ee576040517f08c379a000000000000000000000000000000000000000000000000000000000815260040180806020018281038252602c815260200180612341602c913960400191505060405180910390fd5b60006116f983610e6d565b90508073ffffffffffffffffffffffffffffffffffffffff168473ffffffffffffffffffffffffffffffffffffffff16148061176857508373ffffffffffffffffffffffffffffffffffffffff16611750846109e4565b73ffffffffffffffffffffffffffffffffffffffff16145b8061177957506117788185611580565b5b91505092915050565b61178d838383611826565b6117978382611a81565b6117a18282611c1f565b505050565b600081600001549050919050565b6117bf848484611782565b6117cb84848484611ce6565b611820576040517f08c379a00000000000000000000000000000000000000000000000000000000081526004018080602001828103825260328152602001806122eb6032913960400191505060405180910390fd5b50505050565b8273ffffffffffffffffffffffffffffffffffffffff1661184682610e6d565b73ffffffffffffffffffffffffffffffffffffffff16146118b2576040517f08c379a00000000000000000000000000000000000000000000000000000000081526004018080602001828103825260298152602001806124246029913960400191505060405180910390fd5b600073ffffffffffffffffffffffffffffffffffffffff168273ffffffffffffffffffffffffffffffffffffffff161415611938576040517f08c379a000000000000000000000000000000000000000000000000000000000815260040180806020018281038252602481526020018061231d6024913960400191505060405180910390fd5b61194181612022565b611988600360008573ffffffffffffffffffffffffffffffffffffffff1673ffffffffffffffffffffffffffffffffffffffff1681526020019081526020016000206120e0565b6119cf600360008473ffffffffffffffffffffffffffffffffffffffff1673ffffffffffffffffffffffffffffffffffffffff168152602001908152602001600020612103565b816001600083815260200190815260200160002060006101000a81548173ffffffffffffffffffffffffffffffffffffffff021916908373ffffffffffffffffffffffffffffffffffffffff160217905550808273ffffffffffffffffffffffffffffffffffffffff168473ffffffffffffffffffffffffffffffffffffffff167fddf252ad1be2c89b69c2b068fc378daa952ba7f163c4a11628f55a4df523b3ef60405160405180910390a4505050565b6000611ad96001600560008673ffffffffffffffffffffffffffffffffffffffff1673ffffffffffffffffffffffffffffffffffffffff1681526020019081526020016000208054905061211990919063ffffffff16565b9050600060066000848152602001908152602001600020549050818114611bc6576000600560008673ffffffffffffffffffffffffffffffffffffffff1673ffffffffffffffffffffffffffffffffffffffff1681526020019081526020016000208381548110611b4657fe5b9060005260206000200154905080600560008773ffffffffffffffffffffffffffffffffffffffff1673ffffffffffffffffffffffffffffffffffffffff1681526020019081526020016000208381548110611b9e57fe5b9060005260206000200181905550816006600083815260200190815260200160002081905550505b600560008573ffffffffffffffffffffffffffffffffffffffff1673ffffffffffffffffffffffffffffffffffffffff168152602001908152602001600020805480919060019003611c18919061226e565b5050505050565b600560008373ffffffffffffffffffffffffffffffffffffffff1673ffffffffffffffffffffffffffffffffffffffff168152602001908152602001600020805490506006600083815260200190815260200160002081905550600560008373ffffffffffffffffffffffffffffffffffffffff1673ffffffffffffffffffffffffffffffffffffffff1681526020019081526020016000208190806001815401808255809150509060018203906000526020600020016000909192909190915055505050565b6000611d078473ffffffffffffffffffffffffffffffffffffffff16612163565b611d14576001905061201a565b600060608573ffffffffffffffffffffffffffffffffffffffff168673ffffffffffffffffffffffffffffffffffffffff1663150b7a02905060e01b611d58611686565b898888604051602401808573ffffffffffffffffffffffffffffffffffffffff1673ffffffffffffffffffffffffffffffffffffffff1681526020018473ffffffffffffffffffffffffffffffffffffffff1673ffffffffffffffffffffffffffffffffffffffff16815260200183815260200180602001828103825283818151815260200191508051906020019080838360005b83811015611e08578082015181840152602081019050611ded565b50505050905090810190601f168015611e355780820380516001836020036101000a031916815260200191505b5095505050505050604051602081830303815290604052907bffffffffffffffffffffffffffffffffffffffffffffffffffffffff19166020820180517bffffffffffffffffffffffffffffffffffffffffffffffffffffffff83818316178352505050506040518082805190602001908083835b60208310611ecd5780518252602082019150602081019050602083039250611eaa565b6001836020036101000a0380198251168184511680821785525050505050509050019150506000604051808303816000865af19150503d8060008114611f2f576040519150601f19603f3d011682016040523d82523d6000602084013e611f34565b606091505b509150915081611fa257600081511115611f515780518082602001fd5b6040517f08c379a00000000000000000000000000000000000000000000000000000000081526004018080602001828103825260328152602001806122eb6032913960400191505060405180910390fd5b6000818060200190516020811015611fb957600080fd5b8101908080519060200190929190505050905063150b7a0260e01b7bffffffffffffffffffffffffffffffffffffffffffffffffffffffff1916817bffffffffffffffffffffffffffffffffffffffffffffffffffffffff19161493505050505b949350505050565b600073ffffffffffffffffffffffffffffffffffffffff166002600083815260200190815260200160002060009054906101000a900473ffffffffffffffffffffffffffffffffffffffff1673ffffffffffffffffffffffffffffffffffffffff16146120dd5760006002600083815260200190815260200160002060006101000a81548173ffffffffffffffffffffffffffffffffffffffff021916908373ffffffffffffffffffffffffffffffffffffffff1602179055505b50565b6120f86001826000015461211990919063ffffffff16565b816000018190555050565b6001816000016000828254019250508190555050565b600061215b83836040518060400160405280601e81526020017f536166654d6174683a207375627472616374696f6e206f766572666c6f7700008152506121ae565b905092915050565b60008060007fc5d2460186f7233c927e7db2dcc703c0e500b653ca82273b7bfad8045d85a47060001b9050833f91508082141580156121a557506000801b8214155b92505050919050565b600083831115829061225b576040517f08c379a00000000000000000000000000000000000000000000000000000000081526004018080602001828103825283818151815260200191508051906020019080838360005b83811015612220578082015181840152602081019050612205565b50505050905090810190601f16801561224d5780820380516001836020036101000a031916815260200191505b509250505060405180910390fd5b5060008385039050809150509392505050565b81548183558181111561229557818360005260206000209182019101612294919061229a565b5b505050565b6122bc91905b808211156122b85760008160009055506001016122a0565b5090565b9056fe455243373231456e756d657261626c653a206f776e657220696e646578206f7574206f6620626f756e64734552433732313a207472616e7366657220746f206e6f6e20455243373231526563656976657220696d706c656d656e7465724552433732313a207472616e7366657220746f20746865207a65726f20616464726573734552433732313a206f70657261746f7220717565727920666f72206e6f6e6578697374656e7420746f6b656e4552433732313a20617070726f76652063616c6c6572206973206e6f74206f776e6572206e6f7220617070726f76656420666f7220616c6c4552433732313a2062616c616e636520717565727920666f7220746865207a65726f20616464726573734552433732313a206f776e657220717565727920666f72206e6f6e6578697374656e7420746f6b656e4552433732313a20617070726f76656420717565727920666f72206e6f6e6578697374656e7420746f6b656e4552433732313a207472616e73666572206f6620746f6b656e2074686174206973206e6f74206f776e4552433732314d657461646174613a2055524920717565727920666f72206e6f6e6578697374656e7420746f6b656e4552433732313a20617070726f76616c20746f2063757272656e74206f776e65724552433732313a207472616e736665722063616c6c6572206973206e6f74206f776e6572206e6f7220617070726f766564455243373231456e756d657261626c653a20676c6f62616c20696e646578206f7574206f6620626f756e6473a265627a7a72315820fda9f4816fecf2b3de9372cca5db9ff4b180670ba2eecb9f0ad665bf194d5a3a64736f6c634300051000324552433732313a207472616e7366657220746f206e6f6e20455243373231526563656976657220696d706c656d656e7465724552433732313a207472616e7366657220746f20746865207a65726f20616464726573734552433732313a206f70657261746f7220717565727920666f72206e6f6e6578697374656e7420746f6b656e4552433732313a20617070726f76652063616c6c6572206973206e6f74206f776e6572206e6f7220617070726f76656420666f7220616c6c4552433732313a2062616c616e636520717565727920666f7220746865207a65726f20616464726573734552433732313a206f776e657220717565727920666f72206e6f6e6578697374656e7420746f6b656e4d696e746572526f6c653a2063616c6c657220646f6573206e6f74206861766520746865204d696e74657220726f6c65526f6c65733a206163636f756e7420646f6573206e6f74206861766520726f6c654552433732313a20617070726f76656420717565727920666f72206e6f6e6578697374656e7420746f6b656e526f6c65733a206163636f756e7420697320746865207a65726f20616464726573734552433732313a207472616e73666572206f6620746f6b656e2074686174206973206e6f74206f776e4552433732313a20617070726f76616c20746f2063757272656e74206f776e65724552433732313a207472616e736665722063616c6c6572206973206e6f74206f776e6572206e6f7220617070726f7665644552433732313a206275726e206f6620746f6b656e2074686174206973206e6f74206f776e4552433732314275726e61626c653a2063616c6c6572206973206e6f74206f776e6572206e6f7220617070726f766564a265627a7a72315820c5da16f3758eb71ed27d889c173615dc06010a523d875ea697adfd41658cc91964736f6c63430005100032526f6c65733a206163636f756e7420697320746865207a65726f2061646472657373",
  "source": "pragma solidity ^0.5.16;\n\nimport \"./Pet.sol\";\n\n\ncontract PetFactory is ERC721Mintable, ERC721Burnable  {\n\n\n    event LogPetGenerate(address indexed petOwner, uint petId);\n    event LogPetCheck(address indexed petOwner, uint petId, string status, uint nextFeed);\n    event LogPetFeed(address indexed petOwner, uint petId, string status, uint nextFeed);\n    event LogPetKill(address indexed petOwner, uint petId);\n\n    enum PetStatus {Alive, Dead}\n\n    struct PetInfo {\n        uint petId;\n        PetStatus petStatus;\n        uint nextFeed;\n        \n    }\n\n\n    mapping(address=>PetInfo) petList;\n    uint petCount;\n\n    function generatePet() public returns (uint256) {\n        \n\n        uint256 petId = petCount;\n        petCount += 1;\n\n        PetInfo memory petInfo;\n        petInfo.petId = petId;\n        petInfo.petStatus = PetStatus.Alive;\n        petInfo.nextFeed = block.timestamp; // one week\n\n        petList[msg.sender] = petInfo;\n\n        new Pet(petId, petInfo.nextFeed);\n        safeMint(msg.sender, petId);\n\n        return petId;\n    }\n\n    function killPet() internal {\n        uint petId = petList[msg.sender].petId;\n        petList[msg.sender].petStatus = PetStatus.Dead;\n        burn(petId);\n    }\n\n    function feedPet(uint time) public {\n\n        if (1==1 ) {\n            PetInfo memory pi = petList[msg.sender];\n            pi.nextFeed = time + 604800;\n            delete petList[msg.sender];\n\n            petList[msg.sender] = pi;\n        } else {\n            killPet();\n        }\n\n\n        string memory petStatus;\n        if (petList[msg.sender].petStatus == PetStatus.Alive) {\n            petStatus = 'Alive';\n        } else {\n            petStatus = 'Dead';\n        }\n\n        emit LogPetFeed(msg.sender, petList[msg.sender].petId, petStatus, petList[msg.sender].nextFeed);\n\n    }\n\n    function checkPetInfo() public returns (string memory petStatus, uint nextFeed) {\n        if (petList[msg.sender].nextFeed < block.timestamp ) {\n            killPet();\n        }\n\n\n        if (petList[msg.sender].petStatus == PetStatus.Alive) {\n            petStatus = 'Alive';\n        } else {\n            petStatus = 'Dead';\n        }\n\n        emit LogPetCheck(msg.sender, petList[msg.sender].petId, petStatus, petList[msg.sender].nextFeed);\n        return (petStatus, petList[msg.sender].nextFeed);\n    }\n\n    \n}\n\n\n\n// ideas: state machines, delegate calls, event logs, \n// interfaces, oracles, factory pattern,\n// role based access control, ERC20, ERC20Detailed, ERC20Mintable\n// gnosis multi-sig wallet, upgradeable contracts (registry vs forwarding relay)\n// diamond standard for unlimited size, diamond storage pattern\n// mutex openzepp ReentrancyGuard\n// SafeMath\n\n// look into: erc1400, erc998, erc 1155, ",
  "sourcePath": "/Users/emma/dev/blockchain-developer-bootcamp-final-project/contracts/PetFactory.sol",
  "compiler": {
    "name": "solc",
    "version": "0.5.16+commit.9c3226ce.Emscripten.clang"
  },
  "schemaVersion": "3.4.3",
  "updatedAt": "2021-09-14T05:01:49.945Z",
  "networkType": "ethereum",
  "devdoc": {
    "methods": {
      "approve(address,uint256)": {
        "details": "Approves another address to transfer the given token ID The zero address indicates there is no approved address. There can only be one approved address per token at a given time. Can only be called by the token owner or an approved operator.",
        "params": {
          "to": "address to be approved for the given token ID",
          "tokenId": "uint256 ID of the token to be approved"
        }
      },
      "balanceOf(address)": {
        "details": "Gets the balance of the specified address.",
        "params": {
          "owner": "address to query the balance of"
        },
        "return": "uint256 representing the amount owned by the passed address"
      },
      "burn(uint256)": {
        "details": "Burns a specific ERC721 token.",
        "params": {
          "tokenId": "uint256 id of the ERC721 token to be burned."
        }
      },
      "getApproved(uint256)": {
        "details": "Gets the approved address for a token ID, or zero if no address set Reverts if the token ID does not exist.",
        "params": {
          "tokenId": "uint256 ID of the token to query the approval of"
        },
        "return": "address currently approved for the given token ID"
      },
      "isApprovedForAll(address,address)": {
        "details": "Tells whether an operator is approved by a given owner.",
        "params": {
          "operator": "operator address which you want to query the approval of",
          "owner": "owner address which you want to query the approval of"
        },
        "return": "bool whether the given operator is approved by the given owner"
      },
      "mint(address,uint256)": {
        "details": "Function to mint tokens.",
        "params": {
          "to": "The address that will receive the minted token.",
          "tokenId": "The token id to mint."
        },
        "return": "A boolean that indicates if the operation was successful."
      },
      "ownerOf(uint256)": {
        "details": "Gets the owner of the specified token ID.",
        "params": {
          "tokenId": "uint256 ID of the token to query the owner of"
        },
        "return": "address currently marked as the owner of the given token ID"
      },
      "safeMint(address,uint256)": {
        "details": "Function to safely mint tokens.",
        "params": {
          "to": "The address that will receive the minted token.",
          "tokenId": "The token id to mint."
        },
        "return": "A boolean that indicates if the operation was successful."
      },
      "safeMint(address,uint256,bytes)": {
        "details": "Function to safely mint tokens.",
        "params": {
          "_data": "bytes data to send along with a safe transfer check.",
          "to": "The address that will receive the minted token.",
          "tokenId": "The token id to mint."
        },
        "return": "A boolean that indicates if the operation was successful."
      },
      "safeTransferFrom(address,address,uint256)": {
        "details": "Safely transfers the ownership of a given token ID to another address If the target address is a contract, it must implement {IERC721Receiver-onERC721Received}, which is called upon a safe transfer, and return the magic value `bytes4(keccak256(\"onERC721Received(address,address,uint256,bytes)\"))`; otherwise, the transfer is reverted. Requires the msg.sender to be the owner, approved, or operator",
        "params": {
          "from": "current owner of the token",
          "to": "address to receive the ownership of the given token ID",
          "tokenId": "uint256 ID of the token to be transferred"
        }
      },
      "safeTransferFrom(address,address,uint256,bytes)": {
        "details": "Safely transfers the ownership of a given token ID to another address If the target address is a contract, it must implement {IERC721Receiver-onERC721Received}, which is called upon a safe transfer, and return the magic value `bytes4(keccak256(\"onERC721Received(address,address,uint256,bytes)\"))`; otherwise, the transfer is reverted. Requires the _msgSender() to be the owner, approved, or operator",
        "params": {
          "_data": "bytes data to send along with a safe transfer check",
          "from": "current owner of the token",
          "to": "address to receive the ownership of the given token ID",
          "tokenId": "uint256 ID of the token to be transferred"
        }
      },
      "setApprovalForAll(address,bool)": {
        "details": "Sets or unsets the approval of a given operator An operator is allowed to transfer all tokens of the sender on their behalf.",
        "params": {
          "approved": "representing the status of the approval to be set",
          "to": "operator address to set the approval"
        }
      },
      "supportsInterface(bytes4)": {
        "details": "See {IERC165-supportsInterface}.     * Time complexity O(1), guaranteed to always use less than 30 000 gas."
      },
      "transferFrom(address,address,uint256)": {
        "details": "Transfers the ownership of a given token ID to another address. Usage of this method is discouraged, use {safeTransferFrom} whenever possible. Requires the msg.sender to be the owner, approved, or operator.",
        "params": {
          "from": "current owner of the token",
          "to": "address to receive the ownership of the given token ID",
          "tokenId": "uint256 ID of the token to be transferred"
        }
      }
    }
  },
  "userdoc": {
    "methods": {}
  }
}